:020000040000FA
:10000000E5EF17F01200FFFF04EF08F01200FFFF0A
:10001000FFFFFFFFFFFFFFFF0CEF08F01200FFFFE5
:10002000FFFFFFFFFFFFFFFFFFFFFFFFFFFFFFFFE0
:10003000FFFFFFFFFFFFFFFFFFFFFFFFFFFFFFFFD0
:10004000FFFFFFFFFFFFFFFFFFFFFFFFFFFFFFFFC0
:10005000FFFFFFFFFFFFFFFFFFFFFFFFFFFFFFFFB0
:10100000E5EF17F01200FFFFCAEF10F01200FFFF2C
:10101000FFFFFFFFFFFFFFFF15EF11F01200FFFFC3
:10102000FFFFFFFFFFFFFFFFFFFF0200F72F0000A2
:10103000FD06000002000000F22F0000F80600008C
:1010400005000000D9CFE6FFE1CFD9FFE652A09A14
:101050006A6A686A706A010EE66EE66AE66A710E8E
:10106000E66E0F0EE66E7DEC17F00B6E050EE15E80
:101070000B50150E6F6E9F0E6B6E7B0E696EDF6AE6
:10108000DF500B6E0C6A050E0B5C000E0C5810E264
:10109000DF50040DF3CFE9FFF4CFEAFF000EE9269D
:1010A000040EEA22EE6AEE6AEE6AEE6ADF2AE8D7FA
:1010B0006D8C6E6A6D986D9C68A607D0689600016D
:1010C000736B786B796B7A6BF7D70001010E8A6FBF
:1010D0008B6F8C6B8D6B806BDF6A020EDF5C26E2A0
:1010E000EA6ADF34FE0BEA36E96E6B0EE926000E83
:1010F000EA22EE6AED6AEA6ADF34FE0BEA36E96E4E
:10110000670EE926000EEA22EE6AED6ADF50EA6A0F
:10111000840FE96E000EEA22EF6ADF50EA6A860F5A
:10112000E96E000EEA22EF6ADF2AD7D70001080E27
:101130006B6F040E6C6F160E706E0401140E026F4E
:10114000040E036F080E016F840E006F0001616BC7
:10115000606BE552E552E7CFD9FF1200D9CFE6FF29
:10116000E1CFD9FFE6520001600507E16DBA05D075
:10117000686A69806988020E606F6850040B05E038
:101180006950040B02E06894B7D86DB257D068502C
:10119000010B09E06950010B06E054DFA08A000151
:1011A000040E606F68906850100B05E06950100BDA
:1011B00002E08DD8689868AC19D069AC0FD0010EE8
:1011C000E66EE66A000EE66EE66A730EE66EE66AA4
:1011D0004EEC14F00B6E060EE15E0B50689C0001A5
:1011E000885101E08807885101E10ADB6850200B33
:1011F00004E06950200B01E051D86850020B13E065
:101200006950020B10E0010EE66EE66A000EE66E13
:10121000E66AE6687F0EE66E4EEC14F00B6E060E84
:10122000E15E0B506A6A040E0001E76E6019E8AED9
:1012300002D0E73402D0E750605D02E2A19A29D0E3
:1012400069A626D0DF6A040EDF5C22E268A620D001
:101250006CCF81F000018151780BE842E842E8420E
:10126000826F6896825102E15ED810D0000EE66E61
:10127000E66A810EE66E000EE66E720EE66EE66AB5
:101280004EEC14F00B6E060EE15E0B50DF2ADBD73E
:10129000A19AE552E552E7CFD9FF120070A015D010
:1012A00063C0E9FF64C0EAFFEF5080080DE16BC046
:1012B000E9FF6CC0EAFFEF50840806E163C0E9FF74
:1012C00064C0EAFF8C0EEF6E7090689A1200698419
:1012D00068986D820001010E806F000EE66EE66A6E
:1012E000E66EE66A750EE66EE66A4EEC14F00B6E7C
:1012F000060EE15E0B5012000001806B000EE66EE0
:10130000E66AE66EE66A740EE66EE66A4EEC14F085
:101310000B6E060EE15E0B506D92699468A402D0CC
:101320006894FCD71200D9CFE6FFE1CFD9FFE6528F
:1013300000012D0E886FFD0E811553E17E0E811583
:10134000E8407F0B040DF3CF63F0F4CF64F0000EA0
:101350006327040E642363C065F064C066F065759E
:1013600063C0E9FF64C0EAFFEF503C0BE842E8428B
:101370000D0835E1DF6A080EDF5C23E263C0E9FF98
:1013800064C0EAFF020EE926000EEA22EE50EFCF1B
:10139000EAFFE96EEF50E66EDF50EA6A140FE96E7D
:1013A000040EEA22E552E750EF6E63C0E9FF64C025
:1013B000EAFF020EE926000EEA22EE2AEF22DF2AD9
:1013C000DAD763C0E9FF64C0EAFF020EE926000E27
:1013D000EA22140EEE6E040EED6E0DD807D038D84A
:1013E00005D0FD0E8115040801E157D8E552E552FC
:1013F000E7CFD9FF120000016F6B896B8C6B8D6B8F
:10140000836B706B6BC0E9FF6CC0EAFFEF9E6BC033
:10141000E9FF6CC0EAFFEF9E65C0E9FF66C0EAFF26
:10142000EF9E736B746B756B786B796B7A6B8BD883
:10143000000EE66EE66AE66EE66A030EE66EE66AA1
:101440004EEC14F00B6E060EE15E0B5046EF0DF005
:10145000020E0001705D02E106EF0EF0706B835129
:101460001AE165C0E9FF66C0EAFFEE52080EEF6EB2
:1014700065C0E9FF66C0EAFF020EE926000EEA2217
:10148000140EEE6E040EED6E65C0E9FF66C0EAFF55
:101490008C0EEF6E1200836B1200D9CFE6FFE1CF06
:1014A000D9FFE6526BC0E9FF6CC0EAFFEF50400B7A
:1014B00001E0010EDF6E080E0001605D08E116C458
:1014C0006EFF6E5002E0100E01D0040E606F7005CA
:1014D00026E16BC0E9FF6CC0EAFF020EE926000EB0
:1014E000EA221C0EEE6E040EED6E31DB020E0001E0
:1014F0006F5D06E16BC0E9FF6CC0EAFF840E0DD0A2
:10150000DF5006E16BC0E9FF6CC0EAFFC80E05D0F2
:101510006BC0E9FF6CC0EAFF880EEF6E0FD078AFAA
:101520000CD07B517C1107E005D07CC0FAFF000194
:101530007B51F96EFADF0001789F706BE552E5523E
:10154000E7CFD9FF120004011451600BE842E842D2
:10155000E842E842E842000901E0120015510C0A95
:1015600050E00B0A3FE00C0A31E0010A22E00B0ACE
:101570001EE0020A1CE0030A18E0080A10E0010A53
:101580000CE00F0A08E0030A01E012000001738F6B
:10159000080E606F12008FEF0CF0A5EF0EF0000147
:1015A000610E716F000E726F0CD0ECEF0CF002EF59
:1015B0000BF018510001716F726B620E7127000EF3
:1015C00072237381010E746F738F12000001738F89
:1015D00004011851EA6A620FE96E000EEA2216C48D
:1015E000EFFF1200000EE66EE66AE66EE66A020E95
:1015F000E66EE66A4EEC14F00B6E060EE15E0B50E2
:1016000012001200D9CFE6FFE1CFD9FF030EE12689
:101610000401160510E114511F0B00090CE1000133
:10162000738F030E0401155D04E10001010E7F6F4D
:1016300002D000017F6B0401165101E0D7D0145194
:101640001F0B020801E0D2D018510F0B000901E175
:10165000CDD018510F0B010801E2C8D0200E0001B7
:10166000605D01E0C3D0738F040118BF16D018511C
:101670000F0BE96EEA6AD890E936EA36670EE9267A
:10168000000EEA22EECFDEFFEDCFDDFF18510F0B8B
:10169000EA6A860FE96E000E15D018510F0BE96E3D
:1016A000EA6AD890E936EA366B0EE926000EEA229D
:1016B000EECFDEFFEDCFDDFF18510F0BEA6A840F8E
:1016C000E96E000EEA22020EEFCFDBFF18BF0BD04F
:1016D00018510F0BE96EEA6AD890E936EA36670EC0
:1016E000E926000E0AD018510F0BE96EEA6AD8906D
:1016F000E936EA366B0EE926000EEA22DECFEEFF6F
:10170000DDCFEDFF030E155D20E1DECFE9FFDDCF7C
:10171000EAFFEF50800B11E018BF07D018510F0BF4
:10172000EA6A860FE96E000E06D018510F0BEA6ABE
:10173000840FE96E000EEA22EF82840EDECFE9FF0D
:10174000DDCFEAFFE850EF1251D0D950020FE96E19
:10175000DACFEAFFEF50020B0EE1DECFE9FFDDCF7B
:10176000EAFFEF50800B36E0DECFE9FFDDCFEAFF86
:10177000EF50040B2FE118BF07D018510F0BEA6A86
:10178000860FE96E000E06D018510F0BEA6A840F1F
:10179000E96E000EEA22EF927B0E0B6EDECFE9FFC0
:1017A000DDCFEAFFE850EF16DECFE9FFDDCFEAFF3D
:1017B000EF8C020EE66EE66ADECFE6FFDDCFE6FFD7
:1017C000050EE66EE66A4EEC14F00B6E060EE15E58
:1017D0000B500CD07B0EDECFE9FFDDCFEAFFE850E7
:1017E000EF16DECFE9FFDDCFEAFFEF8C030EE15C01
:1017F00002E2E16AE552E16EE552E7CFD9FF12005D
:1018000000018A514DE1010E8A6F8B5149E1010EB1
:101810008B6F020E705D0DE16BC0E9FF6CC0EAFFDB
:10182000EE52EF6A6BC0E9FF6CC0EAFFC80EEF6EC4
:101830001200700535E1836B63C0E9FF64C0EAFF05
:10184000EE52080EEF6E63C0E9FF64C0EAFF020EBD
:10185000E926000EEA22140EEE6E040EED6E63C051
:10186000E9FF64C0EAFF840EEF6E010E836F65C06E
:10187000E9FF66C0EAFFEE52080EEF6E65C0E9FFB1
:1018800066C0EAFF020EE926000EEA22140EEE6E92
:10189000040EED6E65C0E9FF66C0EAFF800EEF6ED4
:1018A000120000018C6B8D6B020E705D18E165C03B
:1018B000E9FF66C0EAFFEE52080EEF6E65C0E9FF71
:1018C00066C0EAFF020EE926000EEA221C0EEE6E4A
:1018D000040EED6E65C0E9FF66C0EAFF1DD07451CD
:1018E00004011A5D0001755104011B5904E21AC478
:1018F00074F01BC475F02BD96BC0E9FF6CC0EAFF14
:10190000020EE926000EEA221C0EEE6E040EED6EAB
:101910006BC0E9FF6CC0EAFFC80EEF6E1200800ECC
:101920000401145D58E10001C00E736F04011751EA
:10193000030A2FE0010A09E0030A4BE10001520EFD
:10194000716F2D0E726F120E3ED01651F66EF76A41
:10195000D890F636F736FC0EF6262D0EF722090043
:10196000F5CF71F00A00F5CF72F0020E0001F76AB0
:101970007125F66E7251F7220800F5CF74F0030E50
:10198000F76A7125F66E7251F7220800F5CF75F0EF
:101990001200030E165D1AE21651F66EF76AD89021
:1019A000F636F736FE0EF6262D0EF7220900F5CF95
:1019B00071F00A00F5CF72F071C0F6FF72C0F7FF48
:1019C0000800F5500001746F756B12000001736B15
:1019D00012000001736B1200D9CFE6FFE1CFD9FFEF
:1019E000020EE12604011C6B1D6B14511F0B020A31
:1019F00011E0030A0CE0010A35E10001738F0401D4
:101A00001C8100017F052EE104011C832BD0000105
:101A1000738F28D00001738F040118BF0BD01851A9
:101A20000F0BE96EEA6AD890E936EA36670EE926C6
:101A3000000E0AD018510F0BE96EEA6AD890E93609
:101A4000EA366B0EE926000EEA22EECFDEFFEDCF7E
:101A5000DDFFDECFE9FFDDCFEAFFEF50040B02E050
:101A6000010E1C6F000173AF07D01C0E716F040EC6
:101A7000726F7381020E746F020EE15C02E2E16A22
:101A8000E552E16EE552E7CFD9FF12006D980001F3
:101A900073BF2BD078AF09D0020E706F8D5101E16A
:101AA00000DF00018B6B8A6B120065C0E9FF66C026
:101AB000EAFFEE52080EEF6E65C0E9FF66C0EAFF6E
:101AC000020EE926000EEA22140EEE6E040EED6EF2
:101AD00065C0E9FF66C0EAFF8C0EEF6E6BC0E9FFE0
:101AE0006CC0EAFF840EEF6E1200040114AF0DD03B
:101AF0000001010E706F8C5101E1D3DE00018B6B90
:101B00008A6B895123E100EF0CF00001020E706F27
:101B100065C0E9FF66C0EAFFEE52080EEF6E65C0D1
:101B2000E9FF66C0EAFF020EE926000EEA22140E63
:101B3000EE6E040EED6E65C0E9FF66C0EAFF840E2E
:101B4000EF6E8B6B8A6B895101E15ADE1200D9CF9F
:101B5000E6FFE1CFD9FFE652080EDF6E0001745DAB
:101B6000000E75590AE274C0DFFF6F5102E1010EE9
:101B700003D06F0502E1020E6F6FDF500C6AE85070
:101B8000745D746F0C507559756F6BC0E9FF6CC054
:101B9000EAFFEE52DFCFEFFF1C0E7D6F040E7E6F6B
:101BA00073B118D0DF502DE071C0F6FF72C0F7FF9F
:101BB000712B000E72230800F550E66E7DC0E9FF20
:101BC0007EC0EAFF7D2B000E7E23E552E750EF6ECC
:101BD000DF06E8D7DF5015E071C0E9FF72C0EAFF09
:101BE000712B000E7223EF50E66E7DC0E9FF7EC0C0
:101BF000EAFF7D2B000E7E23E552E750EF6EDF06F5
:101C0000E9D7E552E552E7CFD9FF1200D9CFE6FF79
:101C1000E1CFD9FF020EE12663C0E9FF64C0EAFF0D
:101C2000EE52EFCFDFFFDFCF0BF00B500001795DFD
:101C3000000E7A5902E279C0DFFFDF500B6E0C6AAA
:101C4000E850795D796F0C507A597A6F010EDB6A32
:101C5000DF50F36E010EDBCFF4FFF350F45C16E2BD
:101C6000010EDB50EA6A1C0FE96E040EEA22EF5007
:101C7000E66E76C0E9FF77C0EAFF762B000E772389
:101C8000E552E750EF6E010EDB2AE2D7000ED88056
:101C90007955000E7A5527E265C0E9FF66C0EAFF74
:101CA000EE52080EEF6E65C0E9FF66C0EAFF020E55
:101CB000E926000EEA221C0EEE6E040EED6E63C0E5
:101CC000E9FF64C0EAFFEF50400B06E165C0E9FFA1
:101CD00066C0EAFFC80E05D065C0E9FF66C0EAFF2E
:101CE000880EEF6E28D065C0E9FF66C0EAFFEE52AD
:101CF000080EEF6E65C0E9FF66C0EAFF020EE92636
:101D0000000EEA22140EEE6E040EED6E65C0E9FFC1
:101D100066C0EAFF840EEF6E7B517C1107E005D0B0
:101D20007CC0FAFF00017B51F96EFADF0001789F59
:101D3000895101E165DD020EE15C02E2E16AE552F2
:101D4000E16EE552E7CFD9FF1200D9CFE6FFE1CF30
:101D5000D9FFE6520001738F010EE66EE66AE66A6D
:101D6000710EE66E0F0EE66E7DEC17F00B6E050E33
:101D7000E15E0B50DF6ADF500B6E0C6A050E0B5CE8
:101D8000000E0C5810E2DF50040DF3CFE9FFF4CF42
:101D9000EAFF000EE926040EEA22EE6AEE6AEE6A17
:101DA000EE6ADF2AE8D76D8C010EE66EE66AE66A17
:101DB000620EE66E000EE66E7DEC17F00B6E050E01
:101DC000E15E0B506D9C0001080E6B6F040E6C6F92
:101DD000000E636F040E646F63C065F0666F16C417
:101DE00061F0615102E1100E12D0010EE66EE66A5A
:101DF000610EE66E000EE66E010EE66EE66A4EECD1
:101E000014F00B6E060EE15E0B500001200E606FA9
:101E1000E552E552E7CFD9FF1200D9CFE6FFE1CF77
:101E2000D9FF020EE126000EDE6E040EDD6EFE0E00
:101E3000DB5003E1FD0EDB5002E0000E01D0010E8D
:101E4000000902E0000E01D0010E0D6EFD0EDBCF89
:101E5000E6FFFE0EDB50E824E552E7240D24040DD6
:101E6000F4CF0CF0D9CFE9FFDACFEAFFF350EE263A
:101E70000C50ED22DECFE9FFDDCFEAFFEF9EFD0E35
:101E8000DB500AE1FE0EEA6ADB34FE0BEA36E96E4D
:101E9000670EE926000E09D0FE0EEA6ADB34FE0B5F
:101EA000EA36E96E6B0EE926000EEA22DECFEEFF7F
:101EB000DDCFEDFFFE0EDB5005E0DECFE9FFDDCF2D
:101EC000EAFFEF8C020EE15C02E2E16AE552E16EAC
:101ED000E552E7CFD9FF1200D9CFE6FFE1CFD9FF16
:101EE000020EE126FD0EDBA407D0E66AFE0EDBCF74
:101EF000E6FF93DFE552E552FD0EDBA208D0010EAE
:101F0000E66EFE0EDBCFE6FF88DFE552E552FE0E01
:101F1000DB500C6A700F0B6E0F0E0C220BC0DEFF35
:101F20000CC0DDFFDECFE9FFDDCFEAFFFD0EDBCF2A
:101F3000EFFF020EE15C02E2E16AE552E16EE5527A
:101F4000E7CFD9FF1200D9CFE6FFE1CFD9FF020ECC
:101F5000E126FE0EDB5020E165C0E9FF66C0EAFF26
:101F6000EE52080EEF6E65C0E9FF66C0EAFF020E92
:101F7000E926000EEA22140EEE6E040EED6E65C028
:101F8000E9FF66C0EAFF8C0EEF6E6BC0E9FF6CC024
:101F9000EAFF840EEF6E2CD0FE0EDB5003E1FD0E47
:101FA000DB5002E0000E01D0010E000902E0000E3D
:101FB00001D0010E0D6EFD0EDBCFE6FFFE0EDB50F5
:101FC000E824E552E7240D24040DF3CF0BF0F4CF01
:101FD0000CF0000E0B26040E0C220BC0DEFF0CC012
:101FE000DDFF840EDECFE9FFDDCFEAFFE850EF1220
:101FF000020EE15C02E2E16AE552E16EE552E7CFF2
:10200000D9FF1200D9CFE6FFE1CFD9FF020EE126BA
:10201000FD0EDB500AE0FE0EEA6ADB34FE0BEA3608
:10202000E96E6B0EE926000E09D0FE0EEA6ADB347B
:10203000FE0BEA36E96E670EE926000EEA22EECFC5
:10204000DEFFEDCFDDFFD9CFE9FFDACFEAFFEE50BB
:10205000ED1003E1F36AF46A4BD0FE0EDB5005E0AD
:10206000DECFE9FFDDCFEAFFEF7CDECFE9FFDDCF9A
:10207000EAFF020EE926000EEA22FB0EDBCFEEFF9E
:10208000FC0EDBCFEDFFDECFE9FFDDCFEAFFEE5246
:10209000FA0EDBCFEFFF400EDECFE9FFDDCFEAFF28
:1020A000E850EF16880EDECFE9FFDDCFEAFFE850FB
:1020B000EF12FD0EDB500AE0FE0EEA6ADB34FE0B87
:1020C000EA36E96E6B0EE926000E09D0FE0EEA6ACA
:1020D000DB34FE0BEA36E96E670EE926000EEA22D3
:1020E000DECF0BF0DDCF0CF00BC0F3FF0CC0F4FF24
:1020F000020EE15C02E2E16AE552E16EE552E7CFF1
:10210000D9FF1200D9CFE6FFE1CFD9FF6DA822D0C9
:10211000FE0EEA6ADB34FE0BEA36E96E6B0EE92648
:10212000000EEA22EE50EFCFEAFFE96E400EEE1607
:10213000EE6AEE6AEE6AFE0EEA6ADB34FE0BEA36FF
:10214000E96E6B0EE926000EEA22EE50EFCFEAFFB1
:10215000E96EEE7CE552E7CFD9FF12006D6A696A3D
:102160000001606B12000001605113E16D6A696A41
:10217000150E6F6E9F0E6B6E7B0E696ED08EA28AEF
:10218000A08AF28E6DB602D06D86FCD70001010EDA
:10219000606F1200DACFE4FFE2CFDAFFE9CFE4FFAD
:1021A000EACFE4FFF6CFE4FFF7CFE4FFF5CFE4FF9B
:1021B000F3CFE4FFF4CFE4FFFACFE4FF00EE00F04A
:1021C0000B0EE80403E3EECFE4FFFBD700EE0BF0C9
:1021D000040EE80403E3EECFE4FFFBD7E652AEECD7
:1021E00008F0E55200EE0EF0040EE80403E3E5CF3C
:1021F000EDFFFBD700EE0AF00B0EE80403E3E5CF9A
:10220000EDFFFBD7E5CFFAFFE5CFF4FFE5CFF3FF16
:10221000E5CFF5FFE5CFF7FFE5CFF6FFE5CFEAFF26
:10222000E5CFE9FFE5CFDAFF1100D8CFE4FFE0CF3B
:10223000E4FFE46EDACFE4FFE652E552E5CFDAFFE1
:10224000E550E5CFE0FFE5CFD8FF100004D8B3ECB0
:1022500010F04BD8FED70F0EC1120601F46BF56BD0
:10226000F66BF76B02D822EF08F08A9A939A060170
:10227000800EEE6F050EEF6F800EF06F050EF16FA2
:10228000F26BF36B949094928B908B9292829284E7
:102290000601DE6BDF6BE06B9D6B949E93809392E7
:1022A000898A929A938693940F0EC16EC76AC66A02
:1022B000C68A949C010EE66E67DBE5520001A36FAF
:1022C000E85009E0A30507E0A36BE66A010EE66E9D
:1022D0002FDBE552E5520001A351E8B08B8CE8A05A
:1022E0008B9C010EA26FA86B1200200E0001E76EFE
:1022F0006019E8AE02D0E73402D0E750605D03E336
:102300006D50020B07E00001A85101E0CCD18B9089
:102310008B9212000001A85101E18B828150080BC1
:102320000BE006010A0EF25D010EF35905E2899AEF
:102330008A84E66AB9D9E552400E0001A45D420ED6
:10234000A5590F0EA659000EA75906E2A42B000EA0
:10235000A523A623A72302D0010EA26FA20562E146
:1023600006010A0EF25D010EF3595CE20001A46B56
:10237000A56BA66BA76BA26B0601E16B130EE15D6B
:1023800009E2E151EA6A8E0FE96E000EEA22EF6A75
:10239000E12BF4D70001F70E8E6FA3C08FF0020E71
:1023A000906F916BA16B0601010EE16F120EE15D62
:1023B0000DE2E151EA6A8E0FE96E000EEA22EF505B
:1023C0000001A125A16F0601E12BF0D7A1C0A0F06B
:1023D000F29EE16B130EE15D16E2E151EA6A8E0FA7
:1023E000E96E000EEA22EF50E66E0601EEC6E9FF46
:1023F000EFC6EAFFEE2B000EEF23E552E750EF6E3B
:102400000601E12BE7D7130E0601F227000EF32396
:102410009D0EEE5D060EEF5904E3800EEE6F050E85
:10242000EF6FF28E0601000ED880F255000EF355C4
:1024300001E3A6D0F651F71102E1000E08D0F6C66E
:10244000E9FFF7C6EAFFEF50800B01E0010E00093B
:1024500001E096D0400EF25D000EF35904E3060150
:10246000400EFA6F02D0F2C6FAF60601FA510601E2
:102470000C6AF0250B6EF1510C229D0E0B5C060EC2
:102480000C5843E3F0C60BF0F1C60CF09D0ED8805B
:102490000B56060E0C560BC0E1F606010B50E66E0D
:1024A000E66AF0C6E6FFF1C6E6FF400EE66E050EF0
:1024B000E66E52EC17F00B6E060EE15E0B50060155
:1024C000E1510601FA5D0601E26FE850E66EE66A48
:1024D000800EE66E050EE66EE1510C6A400F0B6E43
:1024E000050E0C220BC0E6FF0CC0E6FF52EC17F005
:1024F0000D6E060EE15E0D500601E2510601F06F11
:10250000F16B800EF027050E1AD00601FA51E66E27
:10251000E66AF0C6E6FFF1C6E6FF400EE66E050E7F
:10252000E66E52EC17F00B6E060EE15E0B500601E4
:10253000FA510B6E0C6A0B500601F0270C50F12378
:10254000FAC6E6FF400EE66E050EE66E010EE66E7A
:10255000E66E02EC10F00B6E050EE15E0B50F3CF51
:10256000F6F6F4CFF7F60601FA510B6E0C6A0B5033
:102570000601F25F0C50F35B0001A85101E18B7082
:102580000601F451F51102E1000E08D0F4C6E9FF8E
:10259000F5C6EAFFEF50800B01E0010E000901E0F3
:1025A00082D00A0EF25D010EF35901E37CD00501E1
:1025B0000051B00A5DE0190A55E00E0A34E00F0A36
:1025C00019E0030A0EE00A0A0CE0020A59E1899AAE
:1025D0008A84010EE66E68D8E5520601FF2BFF2BB8
:1025E00007D0899A8A84010EE66E5ED8E55206010C
:1025F000FF2B46D00001010EA26F0501010508E185
:102600000001A3053DE0010EA36F8B8CE66E07D0A1
:102610000001A35135E0A36B8B9CE66A010EE66EC8
:1026200087D9E5522CD0010503E0550E015D22E16A
:10263000020505E1030502E18B8001D08B90020EBB
:10264000025D05E1030502E18B8201D08B92550EFC
:10265000025D16E1030503E18B808B820BD08B902A
:102660008B9208D0010506E10001010EA26F08D08F
:1026700001C5A8F0899A8A84010EE66E15D8E55244
:10268000400EE66E000EE66E050EE66EE66A010E80
:10269000E66E02EC10F00B6E050EE15E0B50F3CF10
:1026A000F4F6F4CFF5F61200D9CFE6FFE1CFD9FF6B
:1026B000F29E8A940601E96B0C0EE95D02E2E92BB9
:1026C000FBD70601FF2BFF2BFF2BC9CFEBF6FE0E2E
:1026D000DB0426E10601E96B130EE95D40E29E96FC
:1026E000E951EA6A000FE96E050EEA22EF50C96E61
:1026F0009EA6FED70601EEC6E9FFEFC6EAFFEE2B67
:10270000000EEF23C9CFEFFF0601EA6B050EEA5D6D
:1027100002E2EA2BFBD70601FF2B0601E92BDCD7EF
:102720000601E96B130EE95D1AE29E96C9689EA642
:10273000FED70601EEC6E9FFEFC6EAFFEE2B000E5C
:10274000EF23C9CFEFFF0601EA6B050EEA5D02E257
:10275000EA2BFBD70601FF2B0601E92BE3D7EA6B37
:10276000050EEA5D02E2EA2BFBD7898A130E060109
:10277000F227000EF3239D0EEE5D060EEF5904E3E3
:10278000800EEE6F050EEF6FF28EE552E7CFD9FFA8
:1027900012000601FB51FC1104E1100EFB6F270E25
:1027A000FC6FFB07000EFC5B6DA207D0FB51FC1118
:1027B0002EE18B708BB013D027D00001605102E165
:1027C0008B9022D0600502E18B8009D0020E605D03
:1027D00002E18B8019D0040E605D03E18B908B8247
:1027E0001200100E605D06E10601FB51FC110FE1C5
:1027F0008B700AD0200E605D0AE10601FB51FC11CE
:1028000006E18B708BA002D08B9212008B8212009B
:102810001200120012001200120012001E0EE66ECC
:10282000010EE66E6CEC0FF0E552E552400EE66EDE
:10283000000EE66E050EE66EE66A010EE66E02EC2E
:1028400010F00B6E050EE15E0B50F3CFF4F6F4CFF3
:10285000F5F6120000017F0520E1000180051DE171
:10286000A09AD7DF6D920001806B0601100EEC6F0D
:102870000E0EED6FEC07000EED5BEC51ED11FAE181
:102880006D84080EEC6F070EED6FEC07000EED5B2C
:10289000EC51ED11FAE16D94A08A1200D9CFE6FF58
:1028A000E1CFD9FFFD0EDBCF06F0FE0EDBCF07F048
:1028B000050E061801E1075036E0E868061802E147
:1028C0007F0E07182FE0030E061801E1075028E0DD
:1028D000020E061801E1075021E0010E061801E181
:1028E00007501AE0740E061801E1075013E0750E48
:1028F000061801E107500CE0730E061801E10750BD
:1029000005E0720E06180FE107500DD083DF0BD0E3
:102910007FDF09D07EDF07D081DF05D07EDF03D0E7
:102920007BDF01D078DF010EE552E7CFD9FF12003F
:10293000D9CFE6FFE1CFD9FFE652A96AFE0EDB5000
:10294000A96EFD0EDB50A86EA69EA69CA684F25032
:10295000800B01E0010EDF6EF29E550EA76EAA0EEF
:10296000A76EA682DF50E8B0F28EE8A0F29EA6B273
:10297000FED7A694A650080B01E0010E00D0E55248
:10298000E552E7CFD9FF1200D9CFE6FFE1CFD9FF5B
:10299000E652FE0EDB50A96EA69EA69CA680000005
:1029A000A850DF6EA68EDF5000D0E552E552E7CF8B
:1029B000D9FF1200D9CFE6FFE1CFD9FFE652DF6A97
:1029C0000B0EDF5C28E2FD0EDBCFE9FFFE0EDBCF56
:1029D000EAFFDF50150DE950F324E96EEA50F420C8
:1029E000EA6E140EE926000EEA22EF80FD0EDBCF20
:1029F000E9FFFE0EDBCFEAFFDF50150DE950F324AF
:102A0000E96EEA50F420EA6E140EE926000EEA227E
:102A1000EF92DF2AD5D7FD0EDBCFE9FFFE0EDBCF2D
:102A2000EAFFE70EE926000EEA22EF6AFD0EDBCF91
:102A3000E9FFFE0EDBCFEAFFE80EE926000EEA22F0
:102A4000EF6AFD0EDBCFE9FFFE0EDBCFEAFFE90EFA
:102A5000E926000EEA22EF6AE552E552E7CFD9FFF8
:102A60001200D9CFE6FFE1CFD9FF020EE126DF6ADF
:102A7000FD0EDBCFE9FFFE0EDBCFEAFFE80EE92615
:102A8000000EEA22010EEFCFDBFF140EDF5C29E21D
:102A9000DF50E76EFB0EDBCFE9FFFC0EDBCFEAFF7A
:102AA000E750E926000EEA22EF50E66EFD0EDBCF7E
:102AB000E9FFFE0EDBCFEAFF010EDB50150DE950FA
:102AC000F324E96EEA50F420EA6E0C6EDF50E9243C
:102AD000E96E000E0C20EA6EE552E750EF6EDF2A39
:102AE000D4D7FD0EDBCFE9FFFE0EDBCFEAFFE80E09
:102AF000E926000EEA22EFCF0BF00A0E0B5C0CE287
:102B0000FD0EDBCFE9FFFE0EDBCFEAFFE80EE92684
:102B1000000EEA22EF2A0BD0FD0EDBCFE9FFFE0EFE
:102B2000DBCFEAFFE80EE926000EEA22EF6AFD0E8F
:102B3000DBCFE9FFFE0EDBCFEAFFE90EE926000E50
:102B4000EA22EF2A020EE15C02E2E16AE552E16E5E
:102B5000E552E7CFD9FF1200D9CFE6FFE1CFD9FF89
:102B6000020EE126DF6AFD0EDBCFE9FFFE0EDBCFB2
:102B7000EAFFE70EE926000EEA22010EEFCFDBFFA7
:102B8000140EDF5C29E2FD0EDBCFE9FFFE0EDBCF8A
:102B9000EAFF010EDB50150DE950F324E96EEA500F
:102BA000F420EA6E0C6EDF50E924E96E000E0C2072
:102BB000EA6EEF50E66EDF50E76EFB0EDBCFE9FF0B
:102BC000FC0EDBCFEAFFE750E926000EEA22E552D1
:102BD000E750EF6EDF2AD4D7FD0EDBCFE9FFFE0E04
:102BE000DBCFEAFFE70EE926000EEA22EFCF0BF07B
:102BF0000A0E0B5C0CE2FD0EDBCFE9FFFE0EDBCF15
:102C0000EAFFE70EE926000EEA22EF2A0BD0FD0EBE
:102C1000DBCFE9FFFE0EDBCFEAFFE70EE926000E71
:102C2000EA22EF6AFD0EDBCFE9FFFE0EDBCFEAFF03
:102C3000E90EE926000EEA22EF06020EE15C02E24E
:102C4000E16AE552E16EE552E7CFD9FF1200D9CF34
:102C5000E6FFE1CFD9FF030EE126010EDB68010E8E
:102C6000F36E020EF3CFDBFF899A63D88A8461D8B2
:102C70008A945FD85ED85DD85CD8020EDB50040819
:102C800048E0020EDB50010A01E039D0DF6A3D0E58
:102C9000DF5C25E29E96140EDF5C0CE2FD0EDBCFBE
:102CA000E9FFDB2AFE0EDBCFEAFF01E3DB2AEF5070
:102CB000C96E01D0C9689EA6FED7FB0EDBCFE9FF27
:102CC000DB2AFC0EDBCFEAFF01E3DB2AC9CFEFFFF3
:102CD00000000000000000000000DF2AD8D7040E2A
:102CE000F36E020EF3CFDBFF24D8898A040EF36E55
:102CF000020EF3CFDBFFDE52550EDD6E09D0898A5E
:102D0000040EF36E020EF3CFDBFF010EDB6800D082
:102D1000B4D7898A010EDB5000D00B6E030EE15C44
:102D200002E2E16AE552E16E0B50E552E7CFD9FFCE
:102D30001200D9CFE6FFE1CFD9FFE652DF6A050ED8
:102D4000DF5C02E2DF2AFBD7E552E552E7CFD9FF8D
:102D500012001201000200000008D804300A00022C
:102D60000102030109022000010100C03209040030
:102D70000002FFFFFF000705010240000107058177
:102D8000024000010403090434034D00690063009C
:102D900072006F006300680069007000200054003A
:102DA0006500630068006E006F006C006F006700D4
:102DB0007900200049006E0063002E0036034D00AC
:102DC0006900630072006F006300680069007000B2
:102DD0002000430041004E002000420055005300F7
:102DE000200041006E0061006C0079007A006500EF
:102DF00072000A033000310032003300642D842D4C
:102E0000882DBC2DF22D2A0EF66E100EF76E000ED8
:102E1000F86E00010900F550AE6F0900F550AF6F74
:102E200003E1AE6701D03DD00900F550A96F09005C
:102E3000F550AA6F0900F550AB6F09000900F55075
:102E4000E96E0900F550EA6E090009000900F55025
:102E5000AC6F0900F550AD6F09000900F6CFB0F076
:102E6000F7CFB1F0F8CFB2F0A9C0F6FFAAC0F7FFD4
:102E7000ABC0F8FF0001AC5302E1AD5307E009001D
:102E8000F550EE6EAC07F8E2AD07F9D7B0C0F6FF2B
:102E9000B1C0F7FFB2C0F8FF0001AE07000EAF5B94
:102EA000BFD71200D9CFE6FFDACFE6FFFA0EE3CFA5
:102EB000D9FFFB0EE3CFDAFFFC0EE3CFE9FFFD0EF7
:102EC000E3CFEAFFE9CFF3FFEACFF4FFF80EE350D8
:102ED00003E1F90EE35008E0F80EE30602E2F90E12
:102EE000E306DECFEEFFF2D7FF0EE3CFDAFFE552C7
:102EF000FF0EE3CFD9FFE5521200FE0EE3CFE9FF4C
:102F0000FF0EE3CFEAFFE9CFF3FFEACFF4FFFB0EBA
:102F1000E35003E1FC0EE35009E0FB0EE30602E29E
:102F2000FC0EE306FD0EE350EE6EF1D71200D9CF92
:102F3000E6FFE1CFD9FF3F0EC716C66AFE0EDB5093
:102F4000C612FC0EDB50C712FD0EDB50030A09E06F
:102F5000010A04E0020A06E1C78C04D0C78CC688C7
:102F600001D0C688FE0EDB50050A03E0010A03E12A
:102F7000928A938201D093929380949EC68AE5525E
:102F8000E7CFD9FF1200D9CFE6FFE1CFD9FFFE0E80
:102F9000DB50C96EC6AE02D0FF0E03D0C7A0FED76D
:102FA000000EE552E7CFD9FF1200000EF36E00EEDF
:102FB00000F0040E01D81200EA6002D0EE6AFCD7DD
:102FC000F350E9601200EE6AFCD713EE00F023EE36
:102FD00000F0F86A0A9C03EC17F0F8EC17F026EC06
:102FE00011F0FBD71200C96AC7A0FED7C950120062
:102FF000120000000000000000FFFFFFFFFFFFFFC6
:10300000FFFFFFFFFFFFFFFFFFFFFFFFFFFFFFFFD0
:10301000FFFFFFFFFFFFFFFFFFFFFFFFFFFFFFFFC0
:10302000FFFFFFFFFFFFFFFFFFFFFFFFFFFFFFFFB0
:10303000FFFFFFFFFFFFFFFFFFFFFFFFFFFFFFFFA0
:0200000400F00A
:10000000FF00FFFFFFFFFFFFFFFFFFFFFFFFFFFFFF
:10001000FFFFFFFFFFFFFFFFFFFFFFFFFFFFFFFFF0
:10002000FFFFFFFFFFFFFFFFFFFFFFFFFFFFFFFFE0
:10003000FFFFFFFFFFFFFFFFFFFFFFFFFFFFFFFFD0
:10004000FFFFFFFFFFFFFFFFFFFFFFFFFFFFFFFFC0
:10005000FFFFFFFFFFFFFFFFFFFFFFFFFFFFFFFFB0
:10006000FFFFFFFFFFFFFFFFFFFFFFFFFFFFFFFFA0
:10007000FFFFFFFFFFFFFFFFFFFFFFFFFFFFFFFF90
:10008000FFFFFFFFFFFFFFFFFFFFFFFFFFFFFFFF80
:10009000FFFFFFFFFFFFFFFFFFFFFFFFFFFFFFFF70
:1000A000FFFFFFFFFFFFFFFFFFFFFFFFFFFFFFFF60
:1000B000FFFFFFFFFFFFFFFFFFFFFFFFFFFFFFFF50
:1000C000FFFFFFFFFFFFFFFFFFFFFFFFFFFFFFFF40
:1000D000FFFFFFFFFFFFFFFFFFFFFFFFFFFFFFFF30
:1000E000FFFFFFFFFFFFFFFFFFFFFFFFFFFFFFFF20
:1000F000FFFFFFFFFFFFFFFFFFFFFFFFFFFFFFFF10
:020000040030CA
:0E000000220E391E000181000FC00FE00F40DC
:020000040020DA
:08000000FFFFFFFFFFFFFFFF00
:00000001FF
