:020000040000FA
:060000008AEF0EF0120071
:020006001200E6
:0600080029EF00F01200D8
:0600180016EF00F01200DB
:02001E000100DF
:0C0020003C1D000000020000470300002F
:04002C00D8CFE4FF46
:10003000E0CFE4FFE46EDACFE4FFE2CFDAFFE6528E
:10004000E552E5CFDAFFE550E5CFE0FFE5CFD8FF99
:100050001000D8CFE4FFE0CFE4FFE46EDACFE4FF96
:10006000E2CFDAFFE9CFE4FFEACFE4FFE652F25055
:10007000100B01E1EED0F250020B01E1EAD08A92BE
:10008000C9CF57F80801010E586F9E960801430525
:1000900047E119C7C9FF80BA40D09EA63DD09E96C1
:1000A000130E0801585D18E2050147C5E9FF48C570
:1000B000EAFF472B000E4823C9CFEFFF0801585134
:1000C000EA6A190FE96E070EEA22EF50C96E0501C0
:1000D0004B2B0801582B12D0130E0801585D0EE16E
:1000E000050147C5E9FF48C5EAFF472B000E482335
:1000F000C9CFEFFF05014B2B0801582B05014B51D0
:10010000066E076AF70E065C000E075805E3060147
:100110005E2B000E5F2301D0BED70801436B82D057
:100120000101FF515CE00101FDC1E9FFFEC1EAFFF1
:10013000FD2B000EFE23EF50C96E80BA4DD09EA657
:100140004AD09E96130E0801585D19E2050147C575
:10015000E9FF48C5EAFF472B000E4823C9CFEFFF50
:100160000101FDC1E9FFFEC1EAFFFD2B000EFE23E8
:10017000EF50C96E05014B2B0801582B12D0130EFE
:100180000801585D0EE1050147C5E9FF48C5EAFFD2
:10019000472B000E4823C9CFEFFF05014B2B080169
:1001A000582B05014B51066E076AF70E065C000ED0
:1001B000075811E306015E2B000E5F23130E0801A2
:1001C000D8805855066E076A06500101FD27075072
:1001D0000101FE2301D0B1D70101FF0723D0C96877
:1001E00080BA20D0C7A01DD0050147C5E9FF48C58A
:1001F000EAFF472B000E4823C9CFEFFF130E08017B
:10020000585D03E2C9680801582B05014B2B050115
:100210004B51066E076AF70E065C000E075801E3A5
:1002200001D0DED70101F70EFD5D090EFE5905E391
:100230000101000EFD6F090EFE6F0501430E475DC3
:10024000060E485905E305014C0E476F050E486F31
:10025000F2929EA02FD0CE500801596F5A6BCFCF8B
:100260005AF80801230E596FD90E5A6F5AC806F072
:10027000076A0650CF6E59C8CEFF9E9008014B2BDF
:10028000000E4C234D234E23D880FF0E08014B5502
:10029000FF0E4C55FF0E4D55000E4E5505E2080160
:1002A0004B6B4C6B4D6B4E6BFF0E0801445D02E0D7
:1002B0000801442BE552E5CFEAFFE5CFE9FFE5CFA2
:1002C000DAFFE550E5CFE0FFE5CFD8FF10000801E9
:1002D000536B0801546B0801556B0801566B010103
:1002E000000EFD6F090EFE6F0101000EFB6F090E7F
:1002F000FC6F0101FF6B05014C0E476F050E486F47
:1003000005014C0E496F050E4A6F05014B6B080144
:10031000436B0801446B0801456B466B08015E6B3B
:1003200006015E6B5F6B929492969298949093986C
:10033000939A8284948492949296949092988994B9
:1003400089968B90899889908992929092920601D1
:10035000856B0601866B06018A6B0601886B0601B8
:10036000946B956B06018B6B0601896B0601966B8E
:10037000976B0601986B0601996B93808A988A9A0D
:100380000201076B086B0201096B0A6B06016E6BB9
:1003900006016F6B0601706B0601716B0601726BD3
:1003A0000601736B08014B6B4C6B4D6B4E6B080178
:1003B000476B486B496B4A6B0601846B0601856B82
:1003C0000601866B0601876B0601886B0601896B47
:1003D00006018A6B06018B6B06018C6B06018D6B27
:1003E00006018E6B06018F6B0601906B0601916B07
:1003F0000601926B0601936B0601946B956B0601E7
:10040000966B976B0601986B0601996B02011A6B4C
:1004100002011B6B0701466B476B86D993928A9248
:1004200090D977D907012C6B0701186B0101006B7C
:100430000801476B486B496B4A6B500E0801475DDA
:10044000C30E4859000E4959000E4A5907E20801E7
:10045000472B000E482349234A23EFD70801476B57
:10046000486B496B4A6B0D01FC85F18CF288F28C6C
:10047000F28E0BEC0AF0640E0801445D1CE30801E7
:10048000446BE9D8F29E0801010E436F8A82F28E16
:100490000801535110E174AA03D08A888A9A0BD0BC
:1004A00075507F0803E376507F0803E28A888A8AC2
:1004B00002D08A988A8A3BEC0BF005014B51000868
:1004C00001E3B9D049C5E9FF4AC5EAFFEFCF5DF8BE
:1004D00008015D51A70A01E190D0170A69E01B0AE3
:1004E00060E00A0A56E0020A0FE05C0A01E08CD0E4
:1004F000130E05014927000E05014A23F29E130E33
:1005000005014B5FF28E8CD006015D512DE10F018C
:1005100040B708D05EEC08F0F29E130E05014B5F69
:10052000F28E21D00F0130B708D0EDEC08F0F29E2A
:10053000130E05014B5FF28E16D00F0120B708D0C5
:100540007CEC09F0F29E130E05014B5FF28E0BD08E
:10055000F29E130E05014927000E05014A23130ED2
:1005600005014B5FF28E14D005014B51006E016AFC
:10057000E40E005C000E01580BE3F29E130E050121
:100580004927000E05014A23130E05014B5FF28E29
:1005900047D002EC07F0F29E130E05014B5FF28E7E
:1005A0003FD0D9DBF29E130E05014B5FF28E38D09F
:1005B0000501492B000E4A23050149C5E9FF4AC53B
:1005C000EAFF492B000E4A23EFCF53F8080153519D
:1005D00001E10DD00801530501E109D00A0E08011F
:1005E000535D05E10801010E536FA0DA00D0F29EC1
:1005F000130E05014B5FF28E13D01ADBF29E130E21
:1006000005014B5FF28E0CD0130E05014927000E39
:1006100005014A23F29E130E05014B5FF28E00D0B6
:100620000501430E495D060E4A5905E305014C0ECE
:10063000496F050E4A6F08015E2B020E08015E5DD0
:1006400008E308015E6BF29E0101FF5101E08A821E
:10065000F28E0FD712000701F50E196F76CF1AF739
:1006600075CF1BF77450400B01E0010E07011C6FA2
:100670007450200B01E0010E07011D6F51C81EF7D9
:1006800052C81FF75EC620F75FC600F0016A00C0BF
:1006900021F76ECF22F7070123690701030E246FAC
:1006A00053C825F70701266B0701276B0801545132
:1006B000000809E20701810E256F55C826F756C8C4
:1006C00027F7080154070701286B0701296B070169
:1006D0002A6B0801606B0801010E5F6F120E0801A2
:1006E0005F5D0DE208015F51EA6A190FE96E070EBE
:1006F000EA22EF500801602708015F2BEFD760C89E
:100700002BF71200420ED56EF184F294F28AD58E48
:100710001200D90ECF6E230ECE6E040EBD6E850E66
:10072000CD6E9E909D8012000F0EC16E9488949A9B
:100730009486898A928AC76A040EC66EC68A9E9675
:100740001200776A800E6F6E800E006EE00E6E14DF
:10075000005C01E0F9D7400E776E300E736E010E2B
:10076000E66ECED9E5520801516F020EE66EC8D989
:10077000E5520801526F08014F6B506B080151514F
:1007800008014F6F506B08014FC850F84F6B0801BC
:10079000525108014F2508014F6F000E08015021EA
:1007A0000801506FE80E08014F1902E1030E5019BD
:1007B00001E1E9D0200E08014F1902E1030E5019A2
:1007C00001E1DBD0710E08014F1902E1020E501950
:1007D00001E1CCD0F40E08014F1902E1010E5019CD
:1007E00001E1BDD02C0E08014F1902E1010E501994
:1007F00001E1AED0130E08014F1902E1010E5019AC
:1008000001E19FD0FA0E08014F1901E1505101E1B9
:1008100091D0E10E08014F1901E1505101E183D05F
:10082000C80E08014F1901E1505176E0AF0E0801E2
:100830004F1901E1505169E0960E08014F1901E18D
:1008400050515CE07D0E08014F1901E150514FE01D
:10085000640E08014F1901E1505142E0530E0801A6
:100860004F1901E1505135E0500E08014F1901E1D7
:10087000505128E0320E08014F1901E150511BE0A0
:10088000210E08014F1901E150510EE0140E08012C
:100890004F1901E1505101E07CD0310E706EBC0E59
:1008A000716E050E726E8FD0170E706EBF0E716E68
:1008B000070E726E88D0130E706EB70E716E030E37
:1008C000726E81D0090E706EBF0E716E070E726E61
:1008D0007AD0090E706EBF0E716E060E726E73D0F6
:1008E000130E706EA00E716E020E726E6CD0070E3B
:1008F000706EBA0E716E070E726E65D0060E706E57
:10090000AF0E716E030E726E5ED0050E706EAF0E7E
:10091000716E030E726E57D0030E706EBF0E716E45
:10092000070E726E50D0030E706EBF0E716E040E05
:10093000726E49D0030E706EBA0E716E070E726E33
:1009400042D0020E706EBF0E716E060E726E3BD0FC
:10095000020E706EBF0E716E040E726E34D0010EF8
:10096000706EBA0E716E070E726E2DD0030E706E21
:10097000980E716E010E726E26D0706ABF0E716E87
:10098000070E726E20D0706ABA0E716E070E726E0C
:100990001AD0130E706EA00E716E020E726E0801E8
:1009A000516B0801640E526F51C8E6FF010EE66EEE
:1009B0007BD8E552E55252C8E6FF020EE66E74D8C7
:1009C000E552E55200D00D01F86B0F011A6B0F01D3
:1009D0001B6B0F01186B0F01196B0F011E6B0F01C1
:1009E0001F6B0F011C6B0F011D6B0F01026B0F01C1
:1009F000036B0F01006B0F01016B0F01066B0F0101
:100A0000076B0F01046B0F01056B0F010A6B0F01E0
:100A10000B6B0F01086B0F01096B0F010E6B0F01C0
:100A20000F6B0F010C6B0F010D6B0F01126B0F01A0
:100A3000136B0F01106B0F01116B0F01166B0F0180
:100A4000176B0F01146B0F01156B0D01010ED46FA5
:100A50000D01D56B0D01F06B0D01F16B0D01F26B0A
:100A60000D01F36B0D01E06B0D01E16B0D01E26B0C
:100A70000D01E36B0D01E46B0D01E56B0D01E66B00
:100A80000D01E76BC90E936E040E816E93949398DB
:100A9000939A6F6AE00E6E1401E0FCD706015D6B5D
:100AA000606A0F01506B1200D9CFE6FFE1CFD9FF8A
:100AB000E652AA6AFE0EDB50A96EFD0EDB50A86E50
:100AC000A69EA69CA684F250800B01E0010EDF6E6C
:100AD000F29E550EA76EAA0EA76EA682DF50E8B052
:100AE000F28EE8A0F29EA6B2FED7A694A650080BFE
:100AF00001E0010E00D0E552E552E7CFD9FF120028
:100B0000D9CFE6FFE1CFD9FFE652FE0EDB50A96E4A
:100B1000A69EA69CA6800000A850DF6EA68EDF5081
:100B200000D0E552E552E7CFD9FF1200D9CFE6FF5A
:100B3000E1CFD9FF020EE126050149C5E9FF4AC50B
:100B4000EAFF492B000E4A23EFCFDFFF010EDB6ADD
:100B5000DF50040A42E0070A2DE0010A16E0030A0A
:100B600001E051D089829280929200000000000042
:100B7000000000000000000000000000000080A055
:100B800003D0DE52010EDD6E41D0899289909290A1
:100B9000928092920000000000000000000000001F
:100BA000000000000000000080B003D0DE52010E03
:100BB000DD6E2CD0898092909282000000000000AF
:100BC000000000000000000000000000000080A203
:100BD00003D0DE52010EDD6E19D089928990899280
:100BE00092929282929000000000000000000000AB
:100BF0000000000000000000000080B203D0DE52C0
:100C0000010EDD6E03D0010EDB6A00D008010A0E72
:100C1000546FDFCF55F8010EDBCF56F8020EE15CC2
:100C200002E2E16AE552E16EE552E7CFD9FF120038
:100C3000D9CFE6FFE1CFD9FF020EE1260501492B0E
:100C4000000E4A230501492B000E4A23050149C520
:100C5000E9FF4AC5EAFF492B000E4A23EFCFDFFF29
:100C6000050149C5E9FF4AC5EAFF492B000E4A23A1
:100C7000010EEFCFDBFFDF50050A47E0010A30E04D
:100C8000070A19E0560A01E055D0010EDB0407E11E
:100C9000898689948B8089988A988A8A0BD0010EDC
:100CA000DB50020807E1899689948B9089988A988D
:100CB0008A9A00D046D0010EDB50030803E18986F2
:100CC00089940DD0010EDB50040803E189868984E4
:100CD00006D0010EDB50050802E18996898431D0E7
:100CE000010EDB50030803E18B8089980DD0010EC3
:100CF000DB50040803E18B80898806D0010EDB50AD
:100D0000050802E18B9089881CD0010EDB50030896
:100D100003E18A988A8A0DD0010EDB50040803E1B2
:100D20008A888A8A06D0010EDB50050802E18A888B
:100D30008A9A07D0899689948B9089988A988A9AFA
:100D400000D0020EE15C02E2E16AE552E16EE5529A
:100D5000E7CFD9FF1200D9CFE6FFE1CFD9FFE652A6
:100D60000501492B000E4A23050149C5E9FF4AC583
:100D7000EAFF492B000E4A23EFCFDFFFDF50030AC3
:100D800020E0010A11E0030A01E029D00F01409799
:100D90000601800E5D6F5DC66FFFE00E6E140601EA
:100DA0005D5D01E0FAD729D00F01409706015D6B28
:100DB0005DC66FFFE00E6E1406015D5D01E0FAD7BF
:100DC0001CD00F0140970601600E5D6F5DC66FFF7E
:100DD000E00E6E1406015D5D01E0FAD70ED00F0142
:100DE00040970601800E5D6F5DC66FFFE00E6E14CA
:100DF00006015D5D01E0FAD700D0E552E552E7CF8C
:100E0000D9FF12000501492B000E4A23050149C5EF
:100E1000E9FF4AC5EAFF492B000E4A23EFCF51F8FC
:100E2000050149C5E9FF4AC5EAFF492B000E4A23DF
:100E3000EFCF52F808014F6B506B08015151080178
:100E40004F6F506B08014FC850F84F6B080152515B
:100E500008014F2508014F6F000E080150210801BD
:100E6000506F800E6F6E800E006EE00E6E14005C90
:100E700001E0F9D7E80E08014F1902E1030E5019FD
:100E800001E1E9D0200E08014F1902E1030E5019CB
:100E900001E1DBD0710E08014F1902E1020E501979
:100EA00001E1CCD0F40E08014F1902E1010E5019F6
:100EB00001E1BDD02C0E08014F1902E1010E5019BD
:100EC00001E1AED0130E08014F1902E1010E5019D5
:100ED00001E19FD0FA0E08014F1901E1505101E1E3
:100EE00091D0E10E08014F1901E1505101E183D089
:100EF000C80E08014F1901E1505176E0AF0E08010C
:100F00004F1901E1505169E0960E08014F1901E1B6
:100F100050515CE07D0E08014F1901E150514FE046
:100F2000640E08014F1901E1505142E0530E0801CF
:100F30004F1901E1505135E0500E08014F1901E100
:100F4000505128E0320E08014F1901E150511BE0C9
:100F5000210E08014F1901E150510EE0140E080155
:100F60004F1901E1505101E07CD0310E706EBC0E82
:100F7000716E050E726E85D0170E706EBF0E716E9B
:100F8000070E726E7ED0130E706EB70E716E030E6A
:100F9000726E77D0090E706EBF0E716E070E726E94
:100FA00070D0090E706EBF0E716E060E726E69D033
:100FB000130E706EA00E716E020E726E62D0070E6E
:100FC000706EBA0E716E070E726E5BD0060E706E8A
:100FD000AF0E716E030E726E54D0050E706EAF0EB2
:100FE000716E030E726E4DD0030E706EBF0E716E79
:100FF000070E726E46D0030E706EBF0E716E040E39
:10100000726E3FD0030E706EBA0E716E070E726E66
:1010100038D0020E706EBF0E716E060E726E31D039
:10102000020E706EBF0E716E040E726E2AD0010E2B
:10103000706EBA0E716E070E726E23D0030E706E54
:10104000980E716E010E726E1CD0706ABF0E716EBA
:10105000070E726E16D0706ABA0E716E070E726E3F
:1010600010D0130E706EA00E716E020E726E08011B
:10107000516B0801640E526F640E08014F6F506B84
:1010800000D051C8E6FF010EE66E0EDDE552E552D6
:1010900052C8E6FF020EE66E07DDE552E5525DC678
:1010A0006FFFE00E6E1406015D5D01E0FAD7110ED0
:1010B00005014927000E05014A2312000501492BAD
:1010C000000E4A23050149C5E9FF4AC5EAFF492B3D
:1010D000000E4A23EFCF43FF050149C5E9FF4AC58A
:1010E000EAFF492B000E4A23EFCF44FF050149C513
:1010F000E9FF4AC5EAFF492B000E4A23EFCF41FF23
:10110000050149C5E9FF4AC5EAFF492B000E4A23FC
:10111000EFCF42FF050149C5E9FF4AC5EAFF492B68
:10112000000E4A23EFCF45FF050149C5E9FF4AC537
:10113000EAFF492B000E4A23EFCF46FF050149C5C0
:10114000E9FF4AC5EAFF492B000E4A23EFCF47FFCC
:10115000050149C5E9FF4AC5EAFF492B000E4A23AC
:10116000EFCF48FF050149C5E9FF4AC5EAFF492B12
:10117000000E4A23EFCF49FF050149C5E9FF4AC5E3
:10118000EAFF492B000E4A23EFCF4AFF050149C56C
:10119000E9FF4AC5EAFF492B000E4A23EFCF4BFF78
:1011A000050149C5E9FF4AC5EAFF492B000E4A235C
:1011B000EFCF4CFF050149C5E9FF4AC5EAFF492BBE
:1011C000000E4A23EFCF4DFF0F014087050E0501AA
:1011D0004927000E05014A2312000501492B000E84
:1011E0004A23050149C5E9FF4AC5EAFF492B000E1C
:1011F0004A23EFCF33FF050149C5E9FF4AC5EAFF9E
:10120000492B000E4A23EFCF34FF050149C5E9FF02
:101210004AC5EAFF492B000E4A23EFCF31FF0501F3
:1012200049C5E9FF4AC5EAFF492B000E4A23EFCF23
:1012300032FF050149C5E9FF4AC5EAFF492B000E07
:101240004A23EFCF35FF050149C5E9FF4AC5EAFF4B
:10125000492B000E4A23EFCF36FF050149C5E9FFB0
:101260004AC5EAFF492B000E4A23EFCF37FF05019D
:1012700049C5E9FF4AC5EAFF492B000E4A23EFCFD3
:1012800038FF050149C5E9FF4AC5EAFF492B000EB1
:101290004A23EFCF39FF050149C5E9FF4AC5EAFFF7
:1012A000492B000E4A23EFCF3AFF050149C5E9FF5C
:1012B0004AC5EAFF492B000E4A23EFCF3BFF050149
:1012C00049C5E9FF4AC5EAFF492B000E4A23EFCF83
:1012D0003CFF050149C5E9FF4AC5EAFF492B000E5D
:1012E0004A23EFCF3DFF0F013087050E0501492747
:1012F000000E05014A2312000501492B000E4A2366
:10130000050149C5E9FF4AC5EAFF492B000E4A23FA
:10131000EFCF23FF050149C5E9FF4AC5EAFF492B85
:10132000000E4A23EFCF24FF050149C5E9FF4AC556
:10133000EAFF492B000E4A23EFCF21FF050149C5E3
:10134000E9FF4AC5EAFF492B000E4A23EFCF22FFEF
:10135000050149C5E9FF4AC5EAFF492B000E4A23AA
:10136000EFCF25FF050149C5E9FF4AC5EAFF492B33
:10137000000E4A23EFCF26FF050149C5E9FF4AC504
:10138000EAFF492B000E4A23EFCF27FF050149C58D
:10139000E9FF4AC5EAFF492B000E4A23EFCF28FF99
:1013A000050149C5E9FF4AC5EAFF492B000E4A235A
:1013B000EFCF29FF050149C5E9FF4AC5EAFF492BDF
:1013C000000E4A23EFCF2AFF050149C5E9FF4AC5B0
:1013D000EAFF492B000E4A23EFCF2BFF050149C539
:1013E000E9FF4AC5EAFF492B000E4A23EFCF2CFF45
:1013F000050149C5E9FF4AC5EAFF492B000E4A230A
:10140000EFCF2DFF0F012087050E05014927000EA4
:1014100005014A2312000B0E0101FF5D01E32AD1F1
:101420000F0E6F140801626F77CF63F8100E08017A
:101430006225771260AE1CD1BFCF65F8BECF66F8CB
:10144000F29E4BC847F84CC848F84DC849F84EC8FA
:101450004AF8F28E0101FBC1E9FFFCC1EAFFFB2B58
:10146000000EFC23E30EEF6E0101FBC1E9FFFCC19E
:10147000EAFFFB2B000EFC2363CFEFFF0101FBC152
:10148000E9FFFCC1EAFFFB2B000EFC2364CFEFFF5A
:101490000101FBC1E9FFFCC1EAFFFB2B000EFC23AD
:1014A00061CFEFFF0101FBC1E9FFFCC1EAFFFB2BAC
:1014B000000EFC2362CFEFFF0101FBC1E9FFFCC17D
:1014C000EAFFFB2B000EFC2365CFEFFF0101FBC100
:1014D000E9FFFCC1EAFFFB2B000EFC2366CFEFFF08
:1014E0000101FBC1E9FFFCC1EAFFFB2B000EFC235D
:1014F00067CFEFFF0101FBC1E9FFFCC1EAFFFB2B56
:10150000000EFC2368CFEFFF0101FBC1E9FFFCC126
:10151000EAFFFB2B000EFC2369CFEFFF0101FBC1AB
:10152000E9FFFCC1EAFFFB2B000EFC236ACFEFFFB3
:101530000101FBC1E9FFFCC1EAFFFB2B000EFC230C
:101540006BCFEFFF0101FBC1E9FFFCC1EAFFFB2B01
:10155000000EFC236CCFEFFF0101FBC1E9FFFCC1D2
:10156000EAFFFB2B000EFC236DCFEFFF0801646B3D
:1015700049C800F04AC801F00001026A036A01018B
:10158000FBC1E9FFFCC1EAFFFB2B000EFC2300C0FE
:10159000EFFF49C800F04AC801F00001026A036A7F
:1015A00000500801642748C800F049C801F04AC843
:1015B00002F00001036A0101FBC1E9FFFCC1EAFF7F
:1015C000FB2B000EFC2300C0EFFF48C800F049C809
:1015D00001F04AC802F00001036A005008016427C4
:1015E0000101FBC1E9FFFCC1EAFFFB2B000EFC235C
:1015F00047C8EFFF08014751080164270101FBC1FB
:10160000E9FFFCC1EAFFFB2B000EFC2365C8EFFFDE
:101610000801655108016427635064246124622431
:10162000652466246724682469246A246B246C2456
:101630006D2408016425E66E0101FBC1E9FFFCC1D0
:10164000EAFFFB2B000EFC23E552E750EF6E609E95
:10165000F29E0101FF2B8A82F28E0101F70EFB5DE3
:10166000090EFC5905E30101000EFB6F090EFC6F2A
:1016700063C877FF1200A4A841D10B0E0101FF5DE2
:1016800001E33CD10F0140AF39D10101FBC1E9FFBA
:10169000FCC1EAFFFB2B000EFC23E20EEF6E010102
:1016A000FBC1E9FFFCC1EAFFFB2B000EFC2343CF8B
:1016B000EFFF0101FBC1E9FFFCC1EAFFFB2B000EBC
:1016C000FC2344CFEFFF0101FBC1E9FFFCC1EAFFAE
:1016D000FB2B000EFC2341CFEFFF0101FBC1E9FF13
:1016E000FCC1EAFFFB2B000EFC2342CFEFFF010100
:1016F000FBC1E9FFFCC1EAFFFB2B000EFC2345CF39
:10170000EFFF0101FBC1E9FFFCC1EAFFFB2B000E6B
:10171000FC2346CFEFFF0101FBC1E9FFFCC1EAFF5B
:10172000FB2B000EFC2347CFEFFF0101FBC1E9FFBC
:10173000FCC1EAFFFB2B000EFC2348CFEFFF0101A9
:10174000FBC1E9FFFCC1EAFFFB2B000EFC2349CFE4
:10175000EFFF0101FBC1E9FFFCC1EAFFFB2B000E1B
:10176000FC234ACFEFFF0101FBC1E9FFFCC1EAFF07
:10177000FB2B000EFC234BCFEFFF0101FBC1E9FF68
:10178000FCC1EAFFFB2B000EFC234CCFEFFF010155
:10179000FBC1E9FFFCC1EAFFFB2B000EFC234DCF90
:1017A000EFFF47C800F048C801F049C802F04AC836
:1017B00003F0180ED8900332023201320032E806EC
:1017C000F9E10101FBC1E9FFFCC1EAFFFB2B000EBF
:1017D000FC2300C0EFFF47C800F048C801F049C82B
:1017E00002F04AC803F0180ED890033202320132D8
:1017F0000032E806F9E100C067F849C800F04AC8BD
:1018000001F00001026A036A0101FBC1E9FFFCC1AA
:10181000EAFFFB2B000EFC2300C0EFFF49C800F0DD
:101820004AC801F00001026A036A005008016727F4
:1018300048C800F049C801F04AC802F00001036A34
:101840000101FBC1E9FFFCC1EAFFFB2B000EFC23F9
:1018500000C0EFFF48C800F049C801F04AC802F0D4
:101860000001036A0050080167270101FBC1E9FF7D
:10187000FCC1EAFFFB2B000EFC2347C8EFFF080169
:101880004751080167270F0143510F0144250F01FC
:1018900041250F0142250F0145250F0146250F0166
:1018A00047250F0148250F0149250F014A250F0142
:1018B0004B250F014C250F014D2508016725E66ECC
:1018C0000101FBC1E9FFFCC1EAFFFB2B000EFC2379
:1018D000E552E750EF6EF29E0101FF2B8A82F28EF5
:1018E0000101F70EFB5D090EFC5905E30101000E35
:0E18F000FB6F090EFC6F0F01409FA4941200C5
:0218FE00D9CF40
:10190000E6FFE1CFD9FFE652DF6A140EDF5C30E27A
:10191000FD0EDBCFE9FFFE0EDBCFEAFFE9CF00F0E3
:10192000EACF01F0DF50140D0050F324E96E0150AE
:10193000F420EA6E130EE926000EEA22EF80FD0E77
:10194000DBCFE9FFFE0EDBCFEAFFE9CF00F0EACF05
:1019500001F0DF50140D0050F324E96E0150F42023
:10196000EA6E130EE926000EEA22EF92DF2ACDD7A7
:10197000FD0EDBCFE9FFFE0EDBCFEAFF900EE9267E
:10198000010EEA22EF6AFD0EDBCFE9FFFE0EDBCF90
:10199000EAFF910EE926010EEA22EF6AFD0EDBCF87
:1019A000E9FFFE0EDBCFEAFF920EE926010EEA22E6
:1019B000EF6AE552E552E7CFD9FF1200D9CFE6FF33
:1019C000E1CFD9FF020EE126DF6AFD0EDBCFE9FF92
:1019D000FE0EDBCFEAFF910EE926010EEA22010E90
:1019E000EFCFDBFF130EDF5C31E2DF50E76EFB0E63
:1019F000DBCFE9FFFC0EDBCFEAFFE750E926000E64
:101A0000EA22EF50E66EFD0EDBCFE9FFFE0EDBCFE4
:101A1000EAFFE9CF02F0EACF03F0010EDB50140D2C
:101A20000250F324E96E0350F420EA6EE9CF00F08F
:101A3000EACF01F0DF500F010024E96E000E012013
:101A4000EA6EE552E750EF6EDF2ACCD7FD0EDBCF12
:101A5000E9FFFE0EDBCFEAFF910EE926010EEA2236
:101A6000EFCF00F0130E005C0CE2FD0EDBCFE9FFC0
:101A7000FE0EDBCFEAFF910EE926010EEA22EF2AE5
:101A80000BD0FD0EDBCFE9FFFE0EDBCFEAFF910EA0
:101A9000E926010EEA22EF6AFD0EDBCFE9FFFE0E1A
:101AA000DBCFEAFF920EE926010EEA22EF2A020EB0
:101AB000E15C02E2E16AE552E16EE552E7CFD9FF6F
:101AC0001200D9CFE6FFE1CFD9FF020EE126DF6A8F
:101AD000FD0EDBCFE9FFFE0EDBCFEAFF900EE9261D
:101AE000010EEA22010EEFCFDBFF130EDF5C31E2C5
:101AF000FD0EDBCFE9FFFE0EDBCFEAFFE9CF02F000
:101B0000EACF03F0010EDB50140D0250F324E96E0E
:101B10000350F420EA6EE9CF00F0EACF01F0DF5085
:101B20000F010024E96E000E0120EA6EEF50E66E10
:101B3000DF50E76EFB0EDBCFE9FFFC0EDBCFEAFFE9
:101B4000E750E926000EEA22E552E750EF6EDF2A61
:101B5000CCD7FD0EDBCFE9FFFE0EDBCFEAFF900E08
:101B6000E926010EEA22EFCF00F0130E005C0CE232
:101B7000FD0EDBCFE9FFFE0EDBCFEAFF900EE9267C
:101B8000010EEA22EF2A0BD0FD0EDBCFE9FFFE0E9D
:101B9000DBCFEAFF900EE926010EEA22EF6AFD0E86
:101BA000DBCFE9FFFE0EDBCFEAFF920EE926010E46
:101BB000EA22EF06020EE15C02E2E16AE552E16E22
:081BC000E552E7CFD9FF120046
:081BC8001E0EF66E000EF76E12
:101BD000000EF86E08010900F5506D6F0900F55010
:101BE0006E6F03E16D6701D03DD00900F550686F5D
:101BF0000900F550696F0900F5506A6F0900090086
:101C0000F550E96E0900F550EA6E09000900090077
:101C1000F5506B6F0900F5506C6F09000900F6CFA5
:101C20006FF8F7CF70F8F8CF71F868C8F6FF69C899
:101C3000F7FF6AC8F8FF08016B5302E16C5307E035
:101C40000900F550EE6E6B07F8E26C07F9D76FC824
:101C5000F6FF70C8F7FF71C8F8FF08016D07000EA6
:061C60006E5BBFD712000D
:0A1C6600D9CFE6FFE1CFD9FF3F0E12
:101C7000C716C66AFE0EDB50C612FC0EDB50C7123A
:101C8000FD0EDB50030A0AE0010A05E0020A01E04A
:101C900007D0C78C06D0C78CC68803D0C68801D0B1
:101CA00000D0FE0EDB50050A06E0010A01E005D077
:101CB0009486928A04D0948602D0949600D0948818
:0C1CC000949AC68AE552E7CFD9FF1200C3
:041CCC00D9CFE6FF87
:101CD000E1CFD9FFFE0EDB50C96EC6AE03D0FF0EBA
:101CE00005D002D0C7A0FED7000E00D0E552E7CF46
:041CF000D9FF120006
:0C1CF400000EF36E00EE00F00D0E01D8A3
:101D00001200EA6002D0EE6AFCD7F350E9601200DC
:041D1000EE6AFCD7A4
:0C1D14001CEE00F02CEE00F0F86A059CBC
:101D2000E4EC0DF003EC00F067EC01F0FBD71200DF
:0C1D3000C96AC7A0FED7C95000D012003D
:041D3C0000000000A3
:101D400000000000000000000000000000FFFFFF96
:101D5000FFFFFFFFFFFF0000000000000000000089
:101D60000000000000000000000000000000000073
:101D70000000000000000000000000000000000063
:101D80000000000000000000000000000000000053
:101D90000000000000000000000000000000000043
:032080000000005D
:020000040030CA
:0100010006F8
:0100020019E4
:010003001EDE
:01000500807A
:010006008178
:010008000FE8
:01000900C036
:01000A000FE6
:01000B00E014
:01000C000FE4
:01000D0040B2
:00000001FF
